S00C00004772626C2E7372656391
S11300000C94E5040C9402050C9402050C9457110D
S11300100C9446360C9402050C9402050C940205CB
S11300200C9402050C9402050C9402050C94972C74
S11300300C9402050C9402050C9402050C94020520
S11300400C947A2E0C9402050C9483280C94452865
S11300500C9402050C9402050C9402050C94020500
S11300600C9402050C9402051107110711071107DE
S1130070A606231023102310231023109A062310FE
S1130080231023102310231023106407640764072C
S11300909C079C07231023102310231023102310E4
S11300A09A0623109A0623102310231023102310DA
S11300B02310231011072310CA0723102310A707A6
S11300C023102310231023102310A7072310231019
S11300D02310A606BF07BF07BF07BF07BF07BF0799
S11300E02310C407231023102310231023102310DC
S11300F02310231023102310231023102310231064
S11301002310231023102310170723102310231068
S113011023102310231023102310231078077807AB
S11301209A0691079107F907F907F90709080908D9
S11301300908411041101D081D08411041104110CB
S11301404110411041104110411041104110411023
S11301504110411041104110411041104110411013
S11301604110F9074E0845104510580865087208F3
S11301707F08451083084510910845109B08A50881
S1130180D608451045104510AF08BC08C908D70E5D
S1130190EC0E0B0FEC0E110F280F170F210F3D0F54
S11301A0470F530F750F960FA40FB30FC10F5F22A4
S11301B0642269226E22732278227D22822287227F
S11301C08C229122A522A522A522A522A522A52220
S11301D0A522A5229B229622A022F822FD220223F8
S11301E007230C23112316231B23332747274C27CC
S11301F0552742275527552755273827552755274B
S1130200552755275527552755273D275527552722
S113021055275527552755275527552755275527FA
S113022055275527552755275527512755275527EE
S113023055275527552755275527552755275527DA
S113024055275527552755275527552755275527CA
S113025055275527552755275527552755275527BA
S1130260552755275527552755273827932A992A3F
S11302709C2AA12AA62AB42AC22A4D2B4D2B4D2BE7
S1130280D02AD32ADC2AE52A4D2B4D2B4D2B4D2B7E
S11302904D2B4D2BF32A032B132B212B242B2D2BEE
S11302A0362B3D2B084AD73B3BCE016E84BCBFFDA9
S11302B0C12F3D6C74319ABD56833DDA3D00C77F32
S11302C011BED9E4BB4C3E916BAAAABE00000080CB
S11302D03F05A84CCDB2D44EB93836A9020C50B95A
S11302E0918688083CA6AAAA2ABE000000803F0086
S11302F03E0D0A002C4C696D3A002C52583A002CE1
S11303004275663A002C002C57506F733A002C004B
S11303102C4D506F733A003C446F6F72003C43683D
S113032065636B003C416C61726D003C486F6D65A8
S1130330003C486F6C64003C52756E003C49646C30
S113034065005D0D0A005B302E396A2E323031367D
S1130350303732363A000D0A003D00244E005D0D60
S11303600A00205300204600205400204D3800206D
S11303704D3900204D3500204D3400204D330020F0
S11303804D3200204D3100204D30002047393400DB
S113039020473933002047393100204739300020C5
S11303A0473230002047323100204731390020479E
S11303B031380020473137002047004733382E00BA
S11303C04738300047330047320047310047300098
S11303D05B005D0D0A005B544C4F3A005D0D0A0052
S11303E02C005B4739323A005D0D0A002C003A00BC
S11303F03330003238005B47005D0D0A003A002CB0
S1130400005B5052423A00290D0A00206D617820A9
S113041074726176656C2C206D6D00206163636578
S11304206C2C206D6D2F7365635E3200206D6178D6
S113043020726174652C206D6D2F6D696E002C2007
S1130440737465702F6D6D007A0079007800202830
S1130450003D0024002028686F6D696E6720707568
S11304606C6C2D6F66662C206D6D290D0A0020289A
S1130470686F6D696E67206465626F756E63652C65
S1130480206D736563290D0A2432373D00202868E6
S11304906F6D696E67207365656B2C206D6D2F6DB4
S11304A0696E290D0A2432363D002028686F6D6973
S11304B06E6720666565642C206D6D2F6D696E29ED
S11304C00D0A2432353D00290D0A2432343D002022
S11304D028686F6D696E672064697220696E76653D
S11304E07274206D61736B3A002028686F6D696EB9
S11304F067206379636C652C20626F6F6C290D0A29
S11305002432333D00202868617264206C696D696F
S113051074732C20626F6F6C290D0A2432323D00F3
S11305202028736F6674206C696D6974732C206263
S11305306F6F6C290D0A2432313D002028726570DA
S11305406F727420696E636865732C20626F6F6CC0
S1130550290D0A2432303D00202861726320746F13
S11305606C6572616E63652C206D6D290D0A2431F2
S1130570333D0020286A756E6374696F6E2064656C
S113058076696174696F6E2C206D6D290D0A2431B2
S1130590323D00290D0A2431313D00202873746155
S11305A0747573207265706F7274206D61736B3A29
S11305B000202870726F62652070696E20696E7603
S11305C06572742C20626F6F6C290D0A2431303DE2
S11305D00020286C696D69742070696E7320696EDF
S11305E0766572742C20626F6F6C290D0A24363D77
S11305F00020287374657020656E61626C652069E3
S11306006E766572742C20626F6F6C290D0A243526
S11306103D00290D0A24343D0020286469722070AD
S11306206F727420696E76657274206D61736B3AB3
S113063000290D0A24333D0020287374657020704E
S11306406F727420696E76657274206D61736B3A93
S1130650002028737465702069646C652064656C7F
S113066061792C206D736563290D0A24323D0020C5
S113067028737465702070756C73652C20757365B0
S113068063290D0A24313D0024303D002424202810
S113069076696577204772626C2073657474696E3D
S11306A06773290D0A24232028766965772023207F
S11306B0706172616D6574657273290D0A24472037
S11306C0287669657720706172736572207374612E
S11306D07465290D0A244920287669657720627596
S11306E0696C6420696E666F290D0A244E20287691
S11306F0696577207374617274757020626C6F63BE
S11307006B73290D0A24783D76616C756520287316
S1130710617665204772626C2073657474696E67D4
S1130720290D0A244E783D6C696E65202873617624
S113073065207374617274757020626C6F636B29C9
S11307400D0A24432028636865636B2067636F6424
S113075065206D6F6465290D0A245820286B696C27
S11307606C20616C61726D206C6F636B290D0A24BF
S113077048202872756E20686F6D696E67206379F2
S1130780636C65290D0A7E20286379636C65207388
S113079074617274290D0A212028666565642068D5
S11307A06F6C64290D0A3F202863757272656E743C
S11307B020737461747573290D0A6374726C2D78D7
S11307C020287265736574204772626C290D0A00D3
S11307D00D0A4772626C20302E396A205B27242769
S11307E020666F722068656C705D0D0A005D0D0AED
S11307F000526573746F72696E6720646566617513
S11308006C74730050676D20456E640043686563C3
S11308106B20446F6F720044697361626C6564009D
S1130820456E61626C65640043617574696F6E3A0C
S113083020556E6C6F636B656400272448277C2702
S113084024582720746F20756E6C6F636B0052659B
S113085073657420746F20636F6E74696E756500C0
S11308605B000D0A00486F6D696E67206661696CF4
S11308700050726F6265206661696C0041626F723C
S11308807420647572696E67206379636C650053C4
S11308906F6674206C696D69740048617264206CC1
S11308A0696D697400414C41524D3A20000D0A00B3
S11308B0496E76616C69642067636F64652049449E
S11308C03A00556E646566696E65642066656564A4
S11308D0207261746500556E737570706F72746503
S11308E06420636F6D6D616E64004D6F64616C2094
S11308F067726F75702076696F6C6174696F6E00D2
S11309004C696E65206F766572666C6F7700486F10
S11309106D696E67206E6F7420656E61626C6564CC
S113092000416C61726D206C6F636B004E6F7420BC
S113093069646C6500454550524F4D207265616491
S1130940206661696C2E205573696E672064656644
S113095061756C74730056616C7565203C2033209E
S1130960757365630053657474696E672064697395
S113097061626C65640056616C7565203C203000D2
S1130980496E76616C69642073746174656D656E1B
S11309907400426164206E756D62657220666F72C8
S11309A06D617400457870656374656420636F6D70
S11309B06D616E64206C6574746572006572726F2B
S11309C0723A20006F6B0D0A000011241FBECFEF96
S11309D0D8E0DEBFCDBF11E0A0E0B1E0E6ECFAE77D
S11309E002C005900D92A630B107D9F726E0A6E023
S11309F0B1E001C01D92A23DB207E1F70E94F413D9
S1130A000C94613D0C940000439808953B9A0E9415
S1130A1004050895823011F4439A08950E94040550
S1130A200895CF939091A705923031F0C82F0E947A
S1130A3031228C2F0E940A05CF910895F999FECF97
S1130A4092BD81BD81E08FBB80B50895F894F9997A
S1130A50FECF92BD81BD81E08FBB80B58627962FE6
S1130A60982359F06F3F29F060BD84E08FBBF99A59
S1130A700AC084E18FBBF99A06C0882321F060BDC7
S1130A8084E28FBBF99A789408958F929F92AF92E3
S1130A90BF92CF92DF92EF92FF920F931F93CF9367
S1130AA0DF937C018B016A014115510509F15A015B
S1130AB0C0E0D1E001C0C401C11108C06C2FCC0F4B
S1130AC0770BC72FCC1FCC27CC1F01C0CD2FF8012B
S1130AD061918F01C60F4C01FFEF8F1A9F0A0E948C
S1130AE0260521E0A21AB10831F7EC0CFD1C01C067
S1130AF0C0E06C2FC7010E942605DF91CF911F91A2
S1130B000F91FF90EF90DF90CF90BF90AF909F90A8
S1130B108F9008958F929F92AF92BF92CF92DF925F
S1130B20EF92FF920F931F93CF93DF937B016A01A0
S1130B304115510511F1C82FD92F5A01CB01912C20
S1130B40882483948C010F5F1F4F0E941E0591100F
S1130B5008C0292D990C330B232F221F2227221F73
S1130B6001C0282D982E920E899381E0A81AB1080D
S1130B70C80141F7EC0CFD1C01C0912CC7010E9477
S1130B801E0521E030E0891511F020E030E0C901B4
S1130B90DF91CF911F910F91FF90EF90DF90CF9055
S1130BA0BF90AF909F908F900895EF92FF920F9314
S1130BB01F93CF93DF937C01062F172FEC012C9604
S1130BC0F70161917191819191917F01F8012191D6
S1130BD03191419151918F010E94C239811105C017
S1130BE0EC16FD0669F781E001C080E0DF91CF914A
S1130BF01F910F91FF90EF9008958FE3EEE2F5E0DF
S1130C00DF011D928A95E9F761E575E080E00E94B5
S1130C10222A811103C087E00E94462208956AEACD
S1130C2075E085E495E00E94B13808952F923F92D3
S1130C304F925F926F927F928F929F92AF92BF92E8
S1130C40CF92DF92EF92FF920F931F93CF93DF9394
S1130C50CDB7DEB7AB970FB6F894DEBF0FBECDBFEE
S1130C607C0189E3EDE6F5E0DF011D928A95E9F761
S1130C708AE0EEE2F5E0AEE6B5E001900D928A95E9
S1130C80E1F7198E612C712CC12CD12C1BA21E8E64
S1130C901AA2AA24A394B12C0F2EF1E68F2EF3E00E
S1130CA09F2EF02DA5C29FEB910F9A3110F00C945A
S1130CB01F108F5F898FAE01465E5F4FBE01675E76
S1130CC07F4FC7010E946C18882311F40C942110E3
S1130CD02A8C3B8C4C8C5D8CC201B1010E94073D77
S1130CE00E94453A062F70E080E090E00E94763A38
S1130CF09B01AC01C201B1010E94CC3820E030E07C
S1130D0048EC52E40E94243C0E94913C0E94453AE3
S1130D10173421F01D3409F45CC1B2C1802F90E076
S1130D208F35910510F00C942310FC01EC5CFF4FFF
S1130D300C945B3D6115710511F00C94A410BAA1DB
S1130D40BB2311F40C9487100C9425100C3109F179
S1130D5028F4043071F00A30A1F01EC1053309F4FF
S1130D6044C00C3509F449C00E3149F115C1E1E024
S1130D70EAA3E1E0ADE6B5E0EC9380E012C1F1E076
S1130D80FAA382E0ADE6B5E08C9380E00AC1B1E05D
S1130D90BAA36115710529F06A30710541F00C940C
S1130DA0271023E0EDE6F5E0208380E001C184E034
S1130DB0ADE6B5E08C9380E0FBC0B1E0BAA3611569
S1130DC0710529F06A30710541F00C94291025E071
S1130DD0EDE6F5E0208380E0EBC0E6E0ADE6B5E0CB
S1130DE0EC9380E0E5C0F1E0FAA3E7E0ADE6B5E01E
S1130DF0EC9380E0D6C0F1E0FAA36115710529F007
S1130E006A30710541F00C942B10E8E0ADE6B5E0D2
S1130E10EC9380E0CDC0E9E0ADE6B5E0EC9380E092
S1130E20C7C0FAA1F1110C942D1022E02AA30230BC
S1130E30B9F028F4002359F0013069F0AFC006324C
S1130E40C9F00035E1F1033009F0A8C00EC01092DA
S1130E506E0581E0A6C031E030936E0581E0A1C04B
S1130E6082E080936E0581E09CC083E080936E05F0
S1130E7081E097C06E31710599F028F464317105F1
S1130E8051F00C942F106832710579F062337105BA
S1130E9089F00C942F1084E080936E0581E088C063
S1130EA095E090936E0581E083C0A6E0A0936E0563
S1130EB081E07EC0B7E0B0936E0581E079C0E8E0E0
S1130EC0E0936E0581E06DC0023149F0033161F0B9
S1130ED0013109F065C01092720582E062C0F1E050
S1130EE0F093720582E05DC082E08093720559C080
S1130EF06115710559F40A3521F41092710583E0E6
S1130F0057C021E02093710583E052C06A30710517
S1130F1011F00C9431100A3511F40C94331084E060
S1130F2047C00D3529F431E030936F0585E039C0B1
S1130F3010926F0585E035C0043129F481E0809377
S1130F40700586E02EC01092700586E02AC09AA132
S1130F5091110C943510013331F41092730588E02B
S1130F60A3E0AAA325C06A30710511F00C943710D0
S1130F70B1E0B093730588E0E3E0EAA319C0065337
S1130F800093740589E00DC0672B11F00C9439109F
S1130F908AE00EC087E005C080E003C081E001C0A4
S1130FA082E0672B29F00C943B1080E0F1E0FAA377
S1130FB0950102C0220F331F8A95E2F7C9019601F9
S1130FC028233923232B11F00C943D10C82AD92A45
S1130FD00FC1672B11F00C943F10802F90E08F31DC
S1130FE0910510F00C944110FC01ED56FF4F0C9448
S1130FF05B3D023049F00E3139F001112CC031E073
S1131000309375058BE02CC082E0809375058BE0EE
S113101027C0043049F0053061F00330F1F481E079
S1131020809377058CE01CC082E0809377058CE088
S113103017C0109277058CE013C0083019F00930FE
S113104031F00DC082E0809376058DE009C01092E6
S113105076058DE005C08BE003C08CE001C08DE017
S1131060D50102C0AA0FBB1F8A95E2F796012A2375
S11310703B23232B11F00C944310CA2ADB2AB8C05B
S1131080812F90E0FC01E654F109E531F10510F0FF
S11310900C944510EE54FF4F0C945B3D2092780560
S11310A03092790540927A0550927B0580E07FC0AA
S11310B020927C0530927D0540927E0550927F05FA
S11310C0BBA1B160BBA381E072C0209280053092C5
S11310D081054092820550928305EBA1E260EBA367
S11310E082E065C020928405309285054092860591
S11310F050928705FBA1F460FBA383E058C00093E2
S1131100880584E054C0C201B1010E943E3A609354
S1131110890570938A0580938B0590938C0585E0EF
S113112046C020928D0530928E0540928F055092D4
S1131130900586E03CC02092910530929205409241
S113114093055092940587E032C020929505309221
S11311509605409297055092980588E028C0209201
S11311609A0530929B0540929C0550929D052E8DC8
S113117021602E8F8AE01BC020929E0530929F052D
S11311804092A0055092A1053E8D32603E8F8BE0C7
S11311900EC02092A2053092A3054092A40550925D
S11311A0A5058E8D84608E8F8CE001C089E0850159
S11311B0082E02C0000F111F0A94E2F793012023A6
S11311C03123232B09F063C7D40102C0B595A79539
S11311D08A95E2F7A0FF0AC020E030E0A901C2012D
S11311E0B1010E94C23988230CF453C7602A712AC2
S11311F0898DF701E80FF11D1081111154CDBE8DB9
S1131200BB2329F0EAA1E11102C0F2E0FAA365FED2
S11312100EC08091890590918A05A0918B05B091AB
S11312208C0580389649A849B1050CF034C78091E3
S11312306F05813031F43AA1323091F560FE2DC74B
S11312402FC080912F0581112BC060FE19C08091A1
S11312507005813029F50DE615E023E333E34BEC0B
S113126051E4D8011B966D917D918D919C911E97AF
S11312700E94243CF801638774878587968710C091
S113128080913C0590913D05A0913E05B0913F05AC
S11312908093780590937905A0937A05B0937B05A4
S11312A070FC10C08091380590913905A0913A05E1
S11312B0B0913B058093950590939605A09397056F
S11312C0B093980580916D05813021F466FEE7C6E0
S11312D0E89466F880917205882349F0813009F416
S11312E04DC71EA2F2E0FDA321E02CA34CC78091C0
S11312F07005813099F532E03EA38DA31CA20F2E18
S1131300FDE6AF2EF5E0BF2EF02D00E010E09E8D3F
S1131310E92EF12CC701002E02C0959587950A94F9
S1131320E2F780FF12C023E333E34BEC51E4D50131
S11313309D966D917D918D919C91D0970E94243CB6
S1131340F50165A776A787A790AB0F5F1F4FF4E061
S1131350AF0EB11C03301105E9F605C022E02EA33F
S113136031E03DA31CA28AA1833041F4809173052E
S1131370813021F49E8D943009F093C68CE0E1E530
S1131380F5E0DE01119601900D928A95E1F7D1FE08
S113139011C080917405873008F085C6909134059A
S11313A0891741F0BE016F5F7F4F0E94222A882374
S11313B009F47BC650906D05A2E05A1629F0B8E0F6
S11313C05B1609F4A8C01CC1EE8DEE2309F46FC6A8
S11313D0C30180759927892B09F46BC660918D052B
S11313E070918E0580918F05909190050E94073D24
S11313F00E94453A673008F05EC6809188058431C2
S113140029F0823009F059C667FC59C6FFEA6F22F9
S1131410662319F061506FA303C0209174052FA3B4
S1131420BE01635F7F4F8FA10E94222A882309F4A3
S113143048C6309088058091690590916A05A0910D
S11314406B05B0916C0588A799A7AAA7BBA78E01C5
S1131450035F1F4F0F2EFDE6EF2EF5E0FF2EF02D5C
S11314600F2EFEE2CF2EF5E0DF2EF02DA12CB12CB5
S11314709E8D892E912CC4010A2C02C095958795C6
S11314800A94E2F780FF36C0A4E13A1229C0F601BB
S113149027A530A941A952A96789708D818D928DA4
S11314A00E94CC38D7019D962D913D914D915C9130
S11314B0D0970E94CC38F801608371838283938330
S11314C0F2E0AF1217C028A539A54AA55BA50E9472
S11314D0CC38D8016D937D938D939C9313970AC058
S11314E0F70185A596A5A7A5B0A9F80180839183E6
S11314F0A283B383FFEFAF1ABF0A0C5F1F4F24E030
S1131500E20EF11C34E0C30ED11C83E0A816B10432
S113151009F0B1CF56C69E8D992309F4D4C50F2E78
S1131520FEE2CF2EF5E0DF2EF02DDE0111965D01F7
S11315300F2EFDE6EF2EF5E0FF2EF02D00E010E07B
S1131540892E912CC401002E02C0959587950A948A
S1131550E2F780FF3AC0F501208131814281538155
S1131560D60157966D917D918D919C915A970E94C9
S1131570CC38F70125A536A547A550A90E94CC383B
S1131580D7019D966D937D938D939C93D097023054
S113159031F5000F111F000F111F03591A4F20912D
S11315A0690530916A0540916B0550916C050E9464
S11315B0CC38F80165A776A787A790AB10916E0584
S11315C0183009F4F2C01FA2F7C0F60187A590A94C
S11315D0A1A9B2A9F70185A796A7A7A7B0AB0F5FEA
S11315E01F4FF4E0CF0ED11C24E0A20EB11C34E056
S11315F0E30EF11C0330110509F0A4CF1FA2E1C5CD
S11316008AA1833009F49BC09E8D992309F4CDC52A
S1131610409071050F2EFEE2CF2EF5E0DF2EF02D67
S11316200F2EFDE6EF2EF5E0FF2EF02DDE011196D4
S11316305D0100E010E0292E312CC101002E02C012
S1131640959587950A94E2F780FD0BC0F60187898A
S1131650908DA18DB28DF70185A796A7A7A7B0ABF2
S11316605EC0F7E05F1609F45AC0411043C0D601CA
S11316709F962D913D914D915C91D297F50160819A
S11316807181828193810E94CD38D7019D962D91DD
S11316903D914D915C91D0970E94CD389B01AC0156
S11316A0F70165A776A787A790AB0230C1F5000FB5
S11316B0111F000F111F03591A4F60916905709192
S11316C06A0580916B0590916C050E94CD38D80114
S11316D09D966D937D938D939C93D097B5E05B1607
S11316E009F446C0E7E05E1609F450C0F3E05F1267
S11316F052C034C0D60157962D913D914D915C91C5
S11317005A97F70165A576A587A590A90E94CD38BB
S1131710D7019D966D937D938D939C93D0970F5F86
S11317201F4FB4E0CB0ED11CE4E0EE0EF11CF4E04C
S1131730AF0EB11C0330110509F07FCF2AC525E097
S11317405216B1F037E0531609F183E0581223C062
S11317509E8D911103C01AA201C01AA2BE01635F3B
S11317607F4F86E00E94222A882309F4AEC413C066
S1131770AE8DA11101C01AA2BE01635F7F4F87E045
S11317800E94222A882309F4A2C405C080916E0510
S1131790823008F09EC410916E05183061F4BE8D3D
S11317A0BB2309F42FC21FA201C01FA2EAA1E1308A
S11317B009F091C430C21FA2FAA1F23009F023C289
S11317C0111105C02E8D222309F401C524C220E085
S11317D030E0A901609178057091790580917A05CE
S11317E090917B050E94C239882309F476C4143091
S11317F028F4123060F4113029F005C2183008F4CE
S1131800F4C101C23E8D332309F4E1C404C28E8DB8
S1131810882309F464C49CA1A92EB12CADA18A2EFD
S1131820912C81E090E08C010CA002C0000F111FEC
S11318300A94E2F702C0880F991FAA95E2F7082BD1
S1131840192BBE8D8B2F90E080239123892B09F4D3
S113185048C4C501880F991F880F991FFC01E359DB
S1131860FA4FDC01A25DBA4F57962D913D914D91EF
S11318705C915A9765A576A587A590A90E94CC3856
S11318806E8F7F8F88A399A3C401880F991F880F37
S1131890991FFC01E359FA4FDC01A25DBA4F579638
S11318A02D913D914D915C915A9765A576A587A59B
S11318B090A90E94CC3868A779A78AA79BA767FE3E
S11318C0E6C0E89467F86AE975E085E495E00E946B
S11318D0D505811108C4809170058130A1F40DE60D
S11318E015E023E333E34BEC51E4F80164A175A163
S11318F086A197A10E94243CD80194966D937D9370
S11319008D939C939797C0909105D0909205E09009
S11319109305F090940520E030E040E850E4C701DE
S1131920B6010E94243CA70196010E94243C6B014D
S11319307C012E8D3F8D48A159A1CA01B9010E9495
S1131940243C9B01AC01C701B6010E94CC386B0159
S11319507C0128A539A54AA55BA5CA01B9010E9445
S1131960243C9B01AC01C701B6010E94CC386B0139
S11319707C0120E030E0A9010E94C23988230CF4E4
S1131980B4C3C701B6010E94C33C6B017C0128A506
S113199039A54AA55BA56E8D7F8D88A199A10E946A
S11319A03D199B01AC01C701B60190580E94CC3986
S11319B06B017C0180916E05833021F4F7FAF09479
S11319C0F7F8F0942090910530909205409093059B
S11319D05090940520E030E0A901C201B1010E94B9
S11319E0C23988237CF4F7FAF094F7F8F094D20122
S11319F0C101B0588093910590939205A0939305EB
S1131A00B09394058501000F111F000F111F0F588B
S1131A101A4F28A539A54AA55BA5C701B6010E949E
S1131A20243C9B01AC016E8D7F8D88A199A10E94FD
S1131A30CC3820E030E040E05FE30E94243CF80131
S1131A4063877487858796878401000F111F000FB1
S1131A50111F0F581A4F2E8D3F8D48A159A1C70150
S1131A60B6010E94243C28A539A54AA55BA50E947D
S1131A70CD3820E030E040E05FE30E94243CD80110
S1131A801B966D937D938D939C931E97C4C0BBA1AD
S1131A90CB2ED12C0C211D21012B09F428C3E1EFFD
S1131AA06E2280917005813041F50DE615E0E12C40
S1131AB0F12CC6010E2C02C0959587950A94E2F785
S1131AC080FF12C023E333E34BEC51E4D8011F96AB
S1131AD06D917D918D919C9152970E94243CF801C7
S1131AE06787708B818B928BFFEFEF1AFF0A0C5F75
S1131AF01F4F23E0E216F104E1F6C401880F991F99
S1131B00880F991FDC01AF58BA4F7D011B962D91A8
S1131B103D914D915C911E9768A579A58AA59BA5D9
S1131B200E94CC381B012C018501000F111F000FEE
S1131B30111F0F581A4FF8012385348545855685A2
S1131B406E8D7F8D88A199A10E94CC38A20191014C
S1131B500E943D194B015C01D7011B962D913D91CB
S1131B604D915C911E97F8016385748585859685F2
S1131B700E943D196B017C0160939105709392055D
S1131B8080939305909394059B01AC01C501B40126
S1131B900E94CC384B015C01E894B7F82AE037ED99
S1131BA043EA5BE3C501B4010E94E43B18169CF5CB
S1131BB020E030E040E05FE3C501B4010E94E43B73
S1131BC018160CF496C22FE632E143E85AE3C70133
S1131BD0B6010E94243C9B01AC01C501B4010E94E2
S1131BE0E43B18160CF487C216C0FE8DFF2309F4DB
S1131BF084C26AE975E085E495E00E94D505811107
S1131C007EC209C01FA22AA1211105C03EED632294
S1131C103CEF732204C08EED682280EE78226728A0
S1131C2009F06FC2EEE2F5E0ADE6B5E05C964D91E9
S1131C305D916D917C915F97438B548B658B768B13
S1131C4012968C91129781831B964D915D916D91A3
S1131C507C911E9746875787608B718B9896CD90A1
S1131C60DD90ED90FC909B97A701960162857385AA
S1131C70848595850E94C2398823C1F080913705F7
S1131C80882321F0B701A6010E94362C8091950586
S1131C9090919605A0919705B09198058093380589
S1131CA090933905A0933A05B0933B05EEE2F5E035
S1131CB0ADE6B5E09C968C919C97828B1A968C919C
S1131CC09185981759F08F014285538564857585F0
S1131CD00E94362C80917705F801818780917605E2
S1131CE090913605981731F00E9411058091760580
S1131CF08093360580916D05813051F460918D0596
S1131D0070918E0580918F05909190050E944517E2
S1131D10EEE2F5E0ADE6B5E015968C911597848377
S1131D2013968C918283FAA1F330F9F480917305B0
S1131D3080933305813089F48091A2059091A305A5
S1131D40A091A405B091A5058093690590936A05B7
S1131D50A0936B05B0936C0508C0109269051092AE
S1131D606A0510926B0510926C0580917405909130
S1131D703405981759F0809334058CE0FE013196B0
S1131D80A1E5B5E001900D928A95E1F7EDE6F5E065
S1131D90848180933105808190E0FC013297E830A2
S1131DA0F10508F055C0E953FF4F0C945B3DBE01AB
S1131DB0635F7F4F8FA10E941429809134052FA166
S1131DC0821346C08CE0FE013D96A1E5B5E001908A
S1131DD00D928A95E1F73CC03AA1332349F020E003
S1131DE040E050E060E87FEB8AE995E00E942D1422
S1131DF020E040E050E060E87FEBCE010D960E94C9
S1131E002D148CE0FE013D96A5E4B5E001900D9201
S1131E108A95E1F71DC065E475E086E00E94142907
S1131E2017C065E475E087E00E94142911C08CE0B6
S1131E30EAE9F5E0ADE5B5E001900D928A95E1F7A8
S1131E4007C08CE0EDE5F5E0DF011D928A95E9F726
S1131E5080916E0580932E05883009F4A9C0BAA13B
S1131E60B23009F0A5C090E08830910508F097C021
S1131E70FC01E153FF4F0C945B3D20E040E050E057
S1131E8060E87FEB8AE995E00E942D1488C0EEE2B9
S1131E90F5E0468557856089718921818AE995E055
S1131EA00E942D147CC0EEE2F5E0C684D784E0885D
S1131EB0F18800919105109192052091930530913C
S1131EC0940581E08F938EA18F939DA19F938CA005
S1131ED0A1804CE755E06AE975E085E495E00E944D
S1131EE063140F900F900F905AC0EEE2F5E0C68491
S1131EF0D784E088F1880091910510919205209192
S1131F009305309194051F92AEA1AF93BDA1BF93E9
S1131F108CA0A1804CE755E06AE975E085E495E082
S1131F200E9463140F900F900F9039C0EEE2F5E019
S1131F304685578560897189E12C00E021818AE911
S1131F4095E00E94BA172BC0EEE2F5E0468557856E
S1131F5060897189EE24E39400E021818AE995E0A7
S1131F600E94BA171CC0EEE2F5E0468557856089E9
S1131F707189E12C01E021818AE995E00E94BA1778
S1131F800EC0EEE2F5E04685578560897189EE243E
S1131F90E39401E021818AE995E00E94BA178CE07C
S1131FA0EAE9F5E0A5E4B5E001900D928A95E1F740
S1131FB08091750580933505882309F40EC10E942C
S1131FC0312280913505813079F48091A7058230E2
S1131FD091F19FB7F89480912B05886080932B052D
S1131FE09FBF0E944D2027C0EEE2F5E081E0808390
S1131FF01482138211821682118610868091A7059D
S11320008230B1F0BE016F5F7F4F80E00E94222AD0
S1132010882309F478C08CE0FE013196A1E5B5E08F
S113202001900D928A95E1F70E94D32B0E9404053A
S113203087E00E94E7221092350580E0CEC081E05F
S1132040CCC082E0CAC084E1C8C088E1C6C084E1D3
S1132050C4C084E1C2C084E1C0C088E1BEC084E1E0
S1132060BCC084E1BAC084E1B8C088E1B6C084E1F0
S1132070B4C084E1B2C087E1B0C085E1AEC087E1FD
S1132080ACC084E1AAC085E1A8C084E1A6C089E10E
S1132090A4C084E0A2C08BE1A0C086E19EC08CE114
S11320A09CC085E29AC08DE198C087E096C08AE121
S11320B094C08CE192C08DE190C084E18EC084E133
S11320C08CC087E08AC08AE188C087E086C087E048
S11320D084C08EE182C08FE180C086E17EC08AE147
S11320E07CC080E27AC081E278C082E276C083E27A
S11320F074C081E272C081E270C08AE16EC081E284
S11321006CC084E26AC087E068C087E166C00C31B5
S113211011F40C94C70650F4043011F40C94B7066F
S11321200A3011F00C94D5070C94BF06053311F452
S11321300C94F3060C3511F40C94FB060E3111F0DB
S11321400C94D5070C94DD060C3111F40C94C906DB
S113215048F4043011F40C94B9060A3011F40C94C8
S1132160C106D3CF053311F40C94F5060C3511F4E4
S11321700C94FD060E3149F60C94DF06E1E0EEA363
S11321801DA2F2E0FCA380917005813009F0EBC838
S1132190B6C825E0521609F4EBCA37E0531609F421
S11321A0F5CA83E05812F7CAD9CA95E0591609F45A
S11321B0DFCAA7E05A1609F4E9CAB3E05B12EBCA16
S11321C0CCCA10916E05183009F0F6CAEFCAEEEDCC
S11321D06E22ECEF7E221AA222CDAB960FB6F894B3
S11321E0DEBF0FBECDBFDF91CF911F910F91FF9046
S11321F0EF90DF90CF90BF90AF909F908F907F90A3
S11322006F905F904F903F902F900895EBE6F0E031
S113221080818D7F8083E8E6F0E080818E7F8083FB
S113222008952198299A8091C20683FF0BC0EBE69A
S1132230F0E0808182608083E8E6F0E08081816064
S1132240808308950E9406110895EF92FF920F93E0
S11322501F93CF93DF9313B112708091C20686FD52
S11322601BC082E0182718C0C0E0D0E000E0EE24D4
S1132270E394F12C8C2F0E94C92B812341F0C701D8
S11322800C2E02C0880F991F0A94E2F7082B21969E
S1132290C330D10579F703C01111E6CF00E0802FD8
S11322A0DF91CF911F910F91FF90EF9008951F92AE
S11322B00F920FB60F9211242F933F934F935F9376
S11322C06F937F938F939F93AF93BF93EF93FF93FA
S11322D08091A705813071F080912D0581110AC08C
S11322E00E943D189FB7F89480912D0583608093D8
S11322F02D059FBFFF91EF91BF91AF919F918F915A
S11323007F916F915F914F913F912F910F900FBEED
S11323100F901F9018952F923F924F925F926F9259
S11323207F928F929F92AF92BF92CF92DF92EF9261
S1132330FF920F931F93CF93DF93CDB7DEB76A97C6
S11323400FB6F894DEBF0FBECDBF9091A6059111D4
S1132350C9C1888F25E836E03F8B2E8B7901CE01E9
S113236001965C0100E010E0412C512C3201988D63
S1132370C92ED12C802F0E94B52BD5018D935D01E0
S1132380D98AC88AC601002E02C0959587950A94F9
S1132390E2F780FF19C020E030E040EC5FEBF7018A
S11323A064A175A186A197A10E94243C862E972E34
S11323B0282E392EA30192010E94C239882324F0C9
S11323C0482C592C622C732C0F5F1F4FF4E0EF0E36
S11323D0F11C0330110571F6288839888091C806EC
S11323E09091C906A091CA06B091CB068A8B9B8BAB
S11323F0AC8BBD8B94E0988B01E06AEA75E0CE016A
S113240004960E94B1388091C306E82EF12CAE01E7
S11324104C5F5F4F0F2EF6EACF2EF5E0DF2EF02D46
S1132420F601DE01119680E090E060E010E05301D7
S11324304201B7FAB094B7F8B094BA8FA98F91015A
S1132440082E02C0359527950A94E2F720FF31C083
S11324506F5F14821582168217829701082E02C0BC
S1132460359527950A94E2F720FF10C0002339F030
S1132470DA018D929D92AD92BC92139716C0DA0147
S11324804D925D926D927C9213970FC0002339F0A8
S1132490DA014D925D926D927C92139706C0DA0137
S11324A08D929D92AD92BC921397A98DBA8D2C9169
S11324B0122B0196298D3A8D2F5F3F4F3A8F298F2A
S11324C04C5F5F4F34968330910509F0B8CF462EA8
S11324D0512C612C712CC301B2010E94743A0E94E8
S11324E0C33C9B01AC016A897B898C899D890E94CC
S11324F0243C4B015C011093C3050E949D1E20E007
S1132500B501A401CE0104960E942E1B0E943D2F0A
S11325100E944F2C0023F1F00E942511FE013196F8
S113252020E030E0682F70E08191982F912359F0DA
S1132530AB01022E02C0559547950A94E2F740FF7D
S113254002C0809518232F5F3F4F2330310561F778
S11325501093C3050E943D2F80912B058473C9F00D
S113256080912B05807339F40111B7C00E942511A5
S1132570388D832329F00E943D180E944D20B2C05B
S11325809FB7F89480912B058B7F80932B059FBF79
S113259004C0812F8C7109F0BDCF0E94D02E0E94FF
S11325A0D61AACECB6E08D919C910E943219B1E040
S11325B00B27D1F020E030E040EA50E4EEECF6E006
S11325C060817181828193810E94243C2B013C01B2
S11325D0A4ECB6E08D919D910D90BC91A02D8A8BB9
S11325E09B8BAC8BBD8B11C0EEECF6E04080518030
S11325F062807380A8ECB6E08D919D910D90BC91A2
S1132600A02D8A8B9B8BAC8BBD8BB889B150B88BBA
S1132610B111F3CEE090C306F12C8090CE069090D9
S1132620CF06A090D006B090D1062401350177FAE8
S1132630709477F8709400E010E0C101002E02C09D
S1132640959587950A94E2F780FF36C0C701002E5E
S113265002C0959587950A94E2F780FF15C0EE892C
S1132660FF8924A135A146A157A1C501B4010E9447
S1132670CD38AE89BF892D913D914D915C910E94D9
S1132680243C0E94F13B0CC0EE89FF8920813181FA
S113269042815381C301B2010E94243C0E94F13B58
S11326A0D60114966C93149715967C9315971696E9
S11326B08C93169717969C930F5F1F4FB4E0CB0E25
S11326C0D11CEE89FF893496FF8BEE8B0330110504
S11326D009F0B3CF0E949D1E05C080912B0582FF97
S11326E04FCF49CF6A960FB6F894DEBF0FBECDBF69
S11326F0DF91CF911F910F91FF90EF90DF90CF90DA
S1132700BF90AF909F908F907F906F905F904F900D
S11327103F902F9008959F92AF92BF92CF92DF92F5
S1132720EF92FF920F931F93CF93DF939090A9059D
S1132730EC010F2EF9EAAF2EF6E0BF2EF02D8C013E
S1132740045F1F4FC990D990E990F99020E030E0E0
S1132750A901C701B6010E94E43B181664F0F50113
S113276021913191419151915F01C701B6010E94BC
S1132770C239882324F481E08093A90502C09920FA
S113278019F18091A705883091F49FB7F89480914E
S11327902B05886080932B059FBFC6EAD5E00E9475
S11327A04D208881811114C089818111F8CF0E9444
S11327B03D189FB7F89480912D05856080932D0571
S11327C09FBF0E944D2004C0C017D10709F0BACFA3
S11327D0DF91CF911F910F91FF90EF90DF90CF90F9
S11327E0BF90AF909F9008950E9413280E94A82B39
S11327F00E94FC2E0E943536E6EAF5E08EE1DF0108
S11328001D928A95E9F781E0808378948091C206CD
S113281084FF03C081E08093A705C6EAD5E00E9447
S1132820EC280E94FD050E94F1280E9406050E94E2
S113283011110E9419200E94D61A0E94D02E0E94C3
S11328409D1E0E940F06188210922B0510922D05D2
S11328501A821B820E948421E2CFBF92CF92DF9220
S1132860EF92FF920F931F93CF93DF938C016A0132
S11328707B01B22E8091C20685FF03C0C8010E946D
S11328808B138091A7058230A1F0C6EAD5E00E949F
S11328904D20888181110DC00E94261B882319F0C8
S11328A00E947B21F4CF2B2DB701A601C8010E9401
S11328B02E1BDF91CF911F910F91FF90EF90DF902E
S11328C0CF90BF9008952F923F924F925F926F9254
S11328D07F928F929F92AF92BF92CF92DF92EF92AC
S11328E0FF920F931F93CF93DF93CDB7DEB7E49797
S11328F00FB6F894DEBF0FBECDBF9E878D877CAB2D
S11329006BAB3A010D831E832F833887CF86D88A19
S1132910E98AFA8A0A2D912C880C991C880C991C36
S1132920880D991D9C8B8B8BCA01880D991D98ABC2
S11329308FA7DC012D903D904D905C90EB89FC8934
S11329402081318142815381C201B1010E94CD387D
S11329506D8B7E8B8F8B988F2A96AFAC2A97B12C78
S1132960AA0CBB1CAA0CBB1C8D859E858A0D9B1DC5
S11329709A8F898FD301AA0DBB1DBAABA9ABCD9099
S1132980DD90ED90FC90FC012081318142815381E6
S1132990C701B6010E94CD386B8F7C8F8D8F9E8FBF
S11329A0D201C101B05889839A83AB83BC83D70118
S11329B0C601B05889879A87AB87BC87EBA9FCA965
S11329C0E80DF91D2D893E894F89588D60817181EB
S11329D0828193810E94CC386B017C01EBA9FCA914
S11329E0EA0DFB1D2B8D3C8D4D8D5E8D60817181BB
S11329F0828193810E94CC384B015C01A70196012E
S1132A0069817A818B819C810E94243C2B013C0149
S1132A10A501940169857A858B859C850E94243C57
S1132A209B01AC01C301B2010E94CD382B013C01D2
S1132A30A501940169817A818B819C810E94243C47
S1132A404B015C01A701960169857A858B859C857C
S1132A500E94243C9B01AC01C501B4010E94CC3806
S1132A60A30192010E944C394B015C012C968FAD5D
S1132A702C978823A9F02DEB37E346E055EBC501ED
S1132A80B4010E94E43B8823FCF02BED3FE049ECC9
S1132A9050E4C501B4010E94CC384B015C0114C060
S1132AA02DEB37E346E055E3C501B4010E94C2397A
S1132AB0181654F02BED3FE049EC50E4C501B40185
S1132AC00E94CD384B015C01C090BE06D090BF0679
S1132AD0E090C006F090C1062D813E814F8158855B
S1132AE0CA01B9010E94CD382B013C01A70196010E
S1132AF0C301B2010E94CC38A70196010E94243C74
S1132B000E94C33C6B017C0120E030E040E05FE3C5
S1132B10C501B4010E94243C2D813E814F8158851A
S1132B200E94243C9F77A70196010E94CC390E9401
S1132B30B13A0E94453A6B017C013B016115710574
S1132B4009F481C1002381F080E090E00E94743A8E
S1132B509B01AC016F85788989899A890E94243CFC
S1132B606F87788B898B9A8BB60180E090E00E9406
S1132B70743A6B017C019B01AC01C501B4010E9454
S1132B80CC396BA77CA78DA79EA72B968FAD2B97CF
S1132B9090E0880F991F880F991F4D845E84480E1A
S1132BA0591EEBA9FCA9E80FF91FD2012D913D9103
S1132BB04D915C9160817181828193810E94CC38B6
S1132BC0A70196010E94CC396F8F78A389A39AA399
S1132BD02BA53CA54DA55EA5CA01B9010E94243CC4
S1132BE09B01AC0160E070E080E090E40E94CC388E
S1132BF06B017C012BEA3AEA4AE25EE36BA57CA511
S1132C008DA59EA50E94243C4B015C0120E030E090
S1132C1040E850E4C701B6010E94CD389B01AC01E5
S1132C20C501B4010E94243C6BA37CA38DA39EA385
S1132C3020E030E040E05FE3C701B6010E94243C9D
S1132C406FA378A789A79AA7B2E06B16710408F45A
S1132C50FAC010E022242394312CC984DA84EB8452
S1132C60FC841C3008F044C0A70196016FA178A52C
S1132C7089A59AA50E94243C4B015C0129813A81D3
S1132C804B815C816BA17CA18DA19EA10E94243CFF
S1132C90A50194010E94CD38862E972EA82EB92E18
S1132CA029813A814B815C816FA178A589A59AA578
S1132CB00E94243C69837A838B839C83A7019601B9
S1132CC06BA17CA18DA19EA10E94243C9B01AC011F
S1132CD069817A818B819C810E94CC3869837A8353
S1132CE08B839C831F5FC82CD92CEA2CFB2C66C0D9
S1132CF0B10180E090E00E94743A2BA53CA54DA55B
S1132D005EA50E94243C6B017C010E94C7396D833F
S1132D107E838F839887C701B6010E94B53C69877B
S1132D207A878B879C87EFA5F8A9C080D180E28041
S1132D30F380F7FAF094F7F8F094A9A9BAA98D9062
S1132D409D90AD90BC90A70196016D817E818F818D
S1132D5098850E94243C69837A838B839C83A50194
S1132D60940169857A858B859C850E94243C9B010E
S1132D70AC0169817A818B819C810E94CD38698301
S1132D807A838B839C83A701960169857A858B85D9
S1132D909C850E94243C6B017C01A50194016D81FA
S1132DA07E818F8198850E94243C9B01AC01C701E0
S1132DB0B6010E94CC386B017C0110E02D893E895C
S1132DC04F89588D69817A818B819C810E94CD388D
S1132DD0EB89FC8960837183828393832B8D3C8D83
S1132DE04D8D5E8DC701B6010E94CD38A98DBA8D77
S1132DF06D937D938D939C9313972F8D38A149A147
S1132E005AA1F20160817181828193810E94CD383F
S1132E10D2016D937D938D939C931397202F4F85AF
S1132E20588969897A898D859E850E942D14E6EAE0
S1132E30F5E08081811110C0FFEF2F1A3F0A621460
S1132E40730409F00ECF202F4F85588969897A8938
S1132E508BA99CA90E942D14E4960FB6F894DEBFAA
S1132E600FBECDBFDF91CF911F910F91FF90EF90D7
S1132E70DF90CF90BF90AF909F908F907F906F9096
S1132E805F904F903F902F9008958F929F92AF92B2
S1132E90BF92CF92DF92EF92FF92CF93DF93209174
S1132EA0A705223009F448C04B015C0120E030E062
S1132EB040EA51E40E94243C0E94B13A0E94453AFF
S1132EC06B017C01EB010E94312220E030E04AE7F3
S1132ED054E4C501B4010E94243C4B015C0182E32B
S1132EE08C9DB0018D9D700D112480E090E00E94B6
S1132EF0743A9B01AC01C501B4010E94CC380E9414
S1132F00B13A0E94453ACB010E943219CD2BA1F06F
S1132F10C6EAD5E00E944D20888181110DC02FEFB3
S1132F2080E792E0215080409040E1F700C000002B
S1132F3021E0C21AD10871F7DF91CF91FF90EF9091
S1132F40DF90CF90BF90AF909F908F9008950E9494
S1132F50061184E00E948B1183E00E948B110E9471
S1132F604D208091A605811104C00E940F060E9485
S1132F70111108958F929F92AF92BF92CF92DF92D8
S1132F80EF920F93CF93DF933091A705323009F47A
S1132F9069C0C22F4A015B016C010E943122109268
S1132FA0C205802F0E941C200E942E20882351F0ED
S1132FB09FB7F89480912D05806180932D059FBF64
S1132FC00E944D208091A60581114CC02C2FB50183
S1132FD0A401C6010E942D1481E080932C059FB7A3
S1132FE0F89480912B05826080932B059FBFC6EADD
S1132FF0D5E00E944D209881911134C0998191119E
S1133000F8CF80912C058130A9F4EE2051F08CE0AA
S1133010EAEAF5E0A6EBB5E001900D928A95E1F7B6
S11330200CC09FB7F89480912D05806180932D0585
S11330309FBF03C081E08093C20510922C050E94BB
S11330404D208091A60581110DC00E94D02E0E94B2
S1133050D61A0E949D1E6AEA75E0C6010E94B13824
S11330600E944A25DF91CF910F91EF90DF90CF908E
S1133070BF90AF909F908F90089580912B0584FD11
S11330802AC09FB7F89480912B05806180932B050B
S11330909FBF0E94D32B0E9404058091A705982FFF
S11330A09C7021F49091A8059130A9F4843049F4DE
S11330B09FB7F89480912D05806280932D059FBF62
S11330C008C09FB7F89480912D05886080932D05E2
S11330D09FBF0E946E2C08954F925F926F927F92D1
S11330E08F929F92AF92BF92CF92DF92EF92FF9214
S11330F00F931F93CF93DF93DC01FB01C081D0E0DA
S1133100FC01EC0FFD1F90819D3229F4EF01229602
S1133110918101E00BC09B3229F02196CA0FDB1F7D
S113312000E004C0EF012296918100E080E020E0FD
S113313010E0412C512C320131E0FE0190539A30C1
S113314010F52F5F2930D8F4811111505301420139
S1133150880C991CAA1CBB1C880C991CAA1CBB1C9F
S1133160840C951CA61CB71C880C991CAA1CBB1C9F
S113317024013501490E511C611C711C09C08111C7
S113318007C01F5F05C09E3F31F4811104C0832F27
S113319090812196D2CF222309F452C06A017B0187
S11331A05D01C301B2010E94743A2B013C0120E08D
S11331B030E0A9010E94C239882351F11F3F6CF409
S11331C02AE037ED43E25CE3C301B2010E94243CF0
S11331D02B013C011E5F1F3F9CF311235CF42DEC7B
S11331E03CEC4CEC5DE3C301B2010E94243C2B0196
S11331F03C010EC0111664F420E030E040E251E4DA
S1133200C301B2010E94243C2B013C011150A1F7DF
S1133210002351F077FA709477F87094F6014082A5
S113322051826282738205C0F601408251826282B9
S11332307382CA19DB09C150F701C08381E001C060
S113324080E0DF91CF911F910F91FF90EF90DF907D
S1133250CF90BF90AF909F908F907F906F905F9032
S11332604F900895009741F0EFE9FFE03197F1F7AF
S113327000C000000197C1F708954F925F926F92CA
S11332807F928F929F92AF92BF92CF92DF92EF92F2
S1133290FF924B015C0169017A01A5019401C5010A
S11332A0B4010E94243C4B015C01A7019601C701B3
S11332B0B6010E94243C9B01AC01C501B4010E94EB
S11332C0CD380E94C33CFF90EF90DF90CF90BF9029
S11332D0AF909F908F907F906F905F904F900895E4
S11332E02F923F924F925F926F927F928F929F9212
S11332F0AF92BF92CF92DF92EF92FF920F931F9300
S1133300CF93DF93C0912401C11101C0C2E1C15028
S1133310D0912201DC1709F436C10C2F10E029E208
S1133320C29FC0011124FC01EA5DFE4F6F01E588D4
S1133330F6889788808C61A172A183A194A19B01D6
S1133340AC010E94CD38F60125A136A147A150A5B4
S11333500E94243CA62EB72EC82ED92E262F372FF6
S1133360482F592F6E2D7F2D892D982D0E94C239FB
S1133370882324F0EA2CFB2C9C2C8D2C89E2809F42
S1133380F001819FF00D1124EA5DFE4F8E2D9F2DDB
S1133390A92DB82D818B928BA38BB48BC11101C045
S11333A0C2E1C150DC1307C080912501D8137CC051
S11333B00E941E2F79C029E2209FC001219F900DF9
S11333C011249C012A5D3E4F6901D9E2EC2EF12CB7
S11333D0DE9D8001DF9D100D11240A5D1E4FC11179
S11333E001C0C2E1C150809125018C1302C00E942A
S11333F01E2FDE9DF001DF9DF00D1124EA5DFE4FCE
S1133400458856886788708CA30192016189728906
S1133410838994890E94C239882309F440C0DE9DBF
S1133420C001DF9D900D1124FC01EA5DFE4F5F0198
S113343061A172A183A194A19B01AC010E94CD382A
S1133440F50125A136A147A150A50E94243CF6010F
S113345021893289438954890E94CD384B015C010A
S11334609B01AC01C301B2010E94E43B181664F451
S1133470DE9DF001DF9DF00D1124EA5DFE4F818A8F
S1133480928AA38AB48A0BC0DE9DF001DF9DF00D01
S11334901124EA5DFE4F418A528A638A748A680164
S11334A0809122018C1392CF20902201F9E22F9E69
S11334B0C00111249C012A5D3E4F7901C1E0C20D77
S11334C0C23109F4C0E030902401D9E258C0CC2EB6
S11334D0D12CDC9D8001DD9D100D11240A5D1E4F51
S11334E0F7014188528863887488F801818892883A
S11334F0A388B488A5019401C301B2010E94C23912
S1133500882324F5F70161A172A183A194A19B01F1
S1133510AC010E94CD38F70125A136A147A150A5E1
S11335200E94243CA30192010E94CD382B013C014E
S11335309B01AC01C501B4010E94E43B181634F4AC
S1133540F801418A528A638A748A2C2EDC9DF00128
S1133550DD9DF00D1124EA5DFE4F258936894789EA
S1133560508D61897289838994890E94C23981113D
S113357001C02C2ECF5FC23109F4C0E07801C31121
S1133580A6CF20922201DF91CF911F910F91FF903E
S1133590EF90DF90CF90BF90AF909F908F907F90EF
S11335A06F905F904F903F902F9008958CE1E6E0EC
S11335B0F1E0DF011D928A95E9F71092250110923E
S11335C0240181E0809323011092220108958091C7
S11335D0250190912401981769F091E0980F923198
S11335E009F490E020912201821302C090932201F9
S11335F090932501089580912501909124019817B5
S113360039F029E2829FC00111248A5D9E4F0895FA
S113361080E090E00895E0912501EF5FE23109F444
S1133620E0E0809124018E1769F089E2E89FF001BF
S11336301124EA5DFE4F61897289838994890E940D
S1133640C33C089560E070E0CB01089581E02091CF
S1133650250190912301291380E008952F923F9230
S11336604F925F926F927F928F929F92AF92BF928E
S1133670CF92DF92EF92FF920F931F93CF93DF933A
S1133680CDB7DEB7E8970FB6F894DEBF0FBECDBF57
S11336904BA75CA76DA77EA7022F2091240139E2D6
S11336A0239FA0011124FA01EA5DFE4F15861686B8
S11336B01786108A15A216A217A210A610820F2E22
S11336C0F9E9CF2EF6E7DF2EF6E9EF2EFEE7FF2E1F
S11336D0F02DC1A2D2A2E3A2F4A29A8F898F85E829
S11336E096E09AAB89ABDE011196BC8FAB8FE6E016
S11336F0F1E0FCABEBABCA01895D9E4F9E8F8D8FD1
S11337004E019DE0890E911C9AA289A25F01A5E851
S1133710B6E0BCA3ABA310E0E22FF0E0F8ABEFA758
S11337209A012A5D3E4F3AA729A7235F3F4F38A746
S11337302FA329A43AA435E2230E311CA98DBA8DF6
S11337406D917D918D919D91BA8FA98FEBA1FCA173
S11337504190519061907190FCA3EBA3A30192015D
S11337600E94243C0E94F13BAB8DBC8D6D937D93F4
S11337708D939D93BC8FAB8FF501C190D190E19057
S1133780F1905F016C197D098E099F099B01AC01C1
S11337903AF422273327A901261B370B480B590B70
S11337A0AD8DBE8D2D933D934D935D93BE8FAD8FA7
S11337B0EFA1F8A5C080D180E280F380C216D306C1
S11337C0E406F50610F469017A01AFA1B8A5CD921B
S11337D0DD92ED92FC9213970E94763AA301920136
S11337E00E94CC392B013C01E9A1FAA161937193A8
S11337F081939193FAA3E9A320E030E0A9010E9408
S1133800C239882344F4812F0E94BF2BA9A5BAA5ED
S11338109C91892B8C93A3019201C301B2010E9454
S1133820243CF10120813181428153810E94CD38B1
S1133830D1016D937D938D939C9313971F5F1330E8
S113384009F07CCF0E94C33C6B017C0189E22FA567
S113385038A9829FF001839FF00D1124EA5DFE4F89
S1133860C5A2D6A2E7A2F0A685859685A785B089CC
S1133870892B8A2B8B2B09F447C220E030E0A90165
S11338806BA57CA58DA59EA50E94C23988230CF149
S1133890002361F0A70196016BA57CA58DA59EA5CB
S11338A00E94243C6BA77CA78DA79EA720E030E054
S11338B040E85FE36BA57CA58DA59EA50E94C23957
S11338C088237CF41BA61CA630E83DA74FE34EA733
S11338D008C059E95BA786E78CA796E99DA7AEE7E0
S11338E0AEA7A701960160E070E080E89FE30E9424
S11338F0CC396DAB7EAB8FAB98AF2E01B9E14B0EDB
S1133900511C1BA21CA21DA21EA229E2EFA5F8A90C
S11339102E9FC0012F9F900D11249C01295B3E4FC7
S1133920190169A87AA80BA91CA9D401CD90DD902E
S1133930ED90FC9020E030E0A901C701B6010E949F
S1133940C239882309F48DC0A70196016DA97EA907
S11339508FA998AD0E94243C6B017C01F401608323
S11339607183828393839B01AC0160E070E080E803
S11339709FE30E94CC399B01AC015F772D8F3E8F72
S11339804F8F58A37AA269A2D3011C962D913D9121
S11339904D915C911F976D8D7E8D8F8D98A10E94A6
S11339A0243C698F7B8FB82EA92E2BA53CA54DA551
S11339B05EA50E94E43B181634F0B98DBBA7EB8DCD
S11339C0ECA7BDA6AEA6D101BC91B98FF101F181DE
S11339D0FB8FD1011296AC9012971396BC90E9A17B
S11339E0FAA1208D318D428D538D6D8D7E8D8F8DFD
S11339F098A10E94243C6D8F79A38FA399A7262FA9
S1133A00372F482F592F698D7B8D8A2D9B2D0E942E
S1133A10C239882334F0FD8DF98F29A12B8FAFA0F3
S1133A20B9A4898D9B8DAA2DBB2DF101808391832F
S1133A30A283B383D8011C962D913D914D915C9145
S1133A401F97C701B6010E94243C9B01AC016BA1E6
S1133A507CA18DA19EA10E94CC386BA37CA38DA3D5
S1133A609EA3B4E08B0E911C0C5F1F4FE4E06E0E1E
S1133A70711C8414950409F058CF9091240180910D
S1133A802501981313C089E22FA538A9829FF0015C
S1133A90839FF00D1124EA5DFE4F118A128A138A66
S1133AA0148A118E128E138E148E90C02FEE3FEF57
S1133AB04FE75FE36BA17CA18DA19EA10E94E43B33
S1133AC018167CF489E24FA558A9849FF001859FBC
S1133AD0F00D1124EA5DFE4F118E128E138E148E9A
S1133AE075C02FEE3FEF4FE75FEB6BA17CA18DA17B
S1133AF09EA10E94E43B181644F08FEE9FEFAFE7BF
S1133B00BFEB8BA39CA3ADA3BEA32BA13CA14DA152
S1133B105EA160E070E080E89FE30E94CC3820E082
S1133B2030E040E05FE30E94243C0E94C33C6B0110
S1133B307C0189E2AFA5B8A98A9FF0018B9FF00DA3
S1133B401124EA5DFE4F2091BA063091BB064091E4
S1133B50BC065091BD0661A172A183A194A10E94EB
S1133B60243CA70196010E94243C4B015C01A7015F
S1133B70960160E070E080E89FE30E94CC389B01EE
S1133B80AC01C501B4010E94CC39E62EF72E082FF2
S1133B90192F20E030E0A9010E94C239882324F4BF
S1133BA0E12CF12C00E010E089E22FA538A9829FD6
S1133BB0F001839FF00D1124EA5DFE4F4E2D5F2D21
S1133BC0602F712F418F528F638F748F2BA53CA56B
S1133BD04DA55EA56BA57CA58DA59EA50E94243C44
S1133BE0F62E072F182FE92E89E24FA558A9849F96
S1133BF0F001859FF00D1124EA5DFE4F8F2D902F6B
S1133C00A12FBE2D858F968FA78FB0A3D18CC28C88
S1133C10B38CA48C90901E0180901F0170902001A1
S1133C2060902101292D382D472D562D6F2D702F91
S1133C30812F9E2D0E94C23988232CF0B92DA82DE6
S1133C40F72DE62D04C0BF2DA02FF12FEE2D2D2D25
S1133C503C2D4B2D5A2D6B2F7A2F8F2F9E2F0E9488
S1133C60E43B1816ACF0292D382D472D562D6F2D19
S1133C70702F812F9E2D0E94C23988232CF0D92CBD
S1133C80C82CB72CA62C04C0DF2CC02EB12EAE2C11
S1133C9089E2AFA5B8A98A9FF0018B9FF00D11248A
S1133CA0EA5DFE4F8D2D9C2DAB2DBA2D858B968B09
S1133CB0A78BB08F8CE0FE013D96A2E1B1E00190AC
S1133CC00D928A95E1F78F2D902FA12FBE2D809311
S1133CD01E0190931F01A0932001B09321018CE059
S1133CE0FE013196A6E0B1E001900D928A95E1F7CC
S1133CF080912301809324018F5F823109F480E055
S1133D00809323010E947019E8960FB6F894DEBFE1
S1133D100FBECDBFDF91CF911F910F91FF90EF9018
S1133D20DF90CF90BF90AF909F908F907F906F90D7
S1133D305F904F903F902F900895AAEAB5E0E6E097
S1133D40F1E082E191E04D915D916D917D9141931E
S1133D50519361937193E817F907A9F70895809136
S1133D60240190912501891710F0891B08958E5E16
S1133D70891B08950E941E2F8091250180932201A2
S1133D800E9470190895CF93DF93EC0188818823F2
S1133D9031F021960E94292889918111FBCFDF916E
S1133DA0CF910895CF93DF93EC012196FC01849188
S1133DB0882339F00E942928FE01849121968111DB
S1133DC0F9CFDF91CF910895CF92DF92EF92FF92D6
S1133DD01F93CF93DF93CDB7DEB7562F142FCDB6F5
S1133DE0DEB62DB73EB7241B31090FB6F8943EBF9B
S1133DF00FBE2DBF6DB77EB76F5F7F4F7B0144232E
S1133E00D1F0FB019FEF940F292F30E02F5F3F4F3C
S1133E10260F371F652F0E942D3D91932E173F07C4
S1133E20C9F7F701E10FF11D31978081805D0E9490
S1133E3029281150B1F70FB6F894DEBE0FBECDBEDF
S1133E40DF91CF911F91FF90EF90DF90CF90089575
S1133E5048E062E00E94E41E08958A3020F084362F
S1133E6020F043E003C041E001C042E06AE00E9468
S1133E70E41E08958F929F92AF92BF92CF92DF92E9
S1133E80EF92FF920F931F93CF93DF93CDB7DEB7DB
S1133E902A970FB6F894DEBF0FBECDBF6B017C012D
S1133EA0042F20E030E0A9010E94C23988233CF4A9
S1133EB08DE20E942928F7FAF094F7F8F094023082
S1133EC088F0102F20E030E048EC52E4C701B6013E
S1133ED00E94243C6B017C011250123098F7802F11
S1133EE0817001C0802F882351F020E030E040E24F
S1133EF051E4C701B6010E94243C6B017C0120E01F
S1133F0030E040E05FE3C701B6010E94CD380E9473
S1133F103E3A2EE2FE01E00FF11D21836115710589
S1133F208105910541F110E00F2EFAE08F2E912CBE
S1133F30A12CB12CF02D011303C021E0210F01C0ED
S1133F40212F11E0120FEE24E394F12CEC0EFD1E50
S1133F50E20EF11CA50194010E94393D605DF70158
S1133F606083622F732F842F952F6115710581054E
S1133F70910509F701C010E0101760F480E3E1E057
S1133F80F0E0EC0FFD1FE10FF11D80831F5F0113B3
S1133F90F6CF02C0011308C012E0100F0F5FFE013C
S1133FA0E00FF11D80E38183112341F0FE01E10F55
S1133FB0F11D80810E9429281150C1F72A960FB65D
S1133FC0F894DEBF0FBECDBFDF91CF911F910F914B
S1133FD0FF90EF90DF90CF90BF90AF909F908F9025
S1133FE008952091C20620FF0AC02BE832E441E282
S1133FF05DE30E94243C44E00E943A1F089543E09C
S11340000E943A1F08952091C20620FF0AC02BE89F
S113401032E441E25DE30E94243C41E00E943A1F05
S1134020089540E00E943A1F089543E00E943A1F19
S113403008953D98459A08951092C4059091C2063A
S113404099231CF090E29093C405882331F0909159
S1134050C40580E289278093C405089586B18072DF
S11340609091C4058927089580912C058130A1F48D
S11340700E942E20882381F010922C058CE0EAEA1D
S1134080F5E0A6EBB5E001900D928A95E1F78091F9
S11340902B05806480932B050895AF92BF92CF9235
S11340A0DF92EF92FF920F931F93CF93DF93C6EAB1
S11340B0D5E001E06894AA24A3F80F2EFEE2EF2EC7
S11340C0F5E0FF2EF02D6894CC24C5F86894DD2427
S11340D0D4F86894BB24B6F810912D051123B1F1DE
S11340E0098311FF04C0802F0E94B22217C012FF5F
S11340F004C082E00E94B22211C013FF04C083E016
S11341000E94B2220BC014FF04C084E00E94B222B9
S113411005C015FF03C085E00E94B22210FF0FC046
S1134120802F0E94E7229FB7F89480912B058F7E01
S113413080932B059FBF80912B0584FFFCCF8FB705
S1134140F89490912D0510922D058FBF10912B0599
S1134150112309F4A5C014FF04C081E08093A605CF
S1134160BFC010FF0AC00E940D279FB7F89480912A
S11341702B058E7F80932B059FBF812F887609F4B2
S1134180A9C08981882359F0982F9C7709F09FC092
S113419023C00E941E2F0A838981811105C082E0F9
S11341A08A8316FD06C099C016FF06C0883009F43C
S11341B0B9828A8188608A8313FF03C0898185FF5D
S11341C0D98215FF09C086E00E94E7228A8181FD19
S11341D0146084608A83C9829FB7F89480912B0508
S11341E0877980932B059FBF11FF3DC0812F88766F
S11341F091F58981882329F0807569F18A8181FF8D
S11342002AC08A8182FF18C0F7018185882351F072
S113421042855385648575850E94D92B80EA9FE089
S11342200E943219F7018085882331F00E940A0523
S113423088EE93E00E9432190E94FB1A892B49F000
S11342408A8183FD06C0A9820E943D2F0E944F2CC3
S113425001C019821A829FB7F89480912B058D7F33
S113426080932B059FBF12FF1BC08981807371F05F
S11342708B8181110BC08A8182FF04C00E94D32BE1
S11342800E9404058A8182608A8302C01A8219828C
S11342909FB7F89480912B058B7F80932B059FBF4C
S11342A089818C7711F00E943D2F8981803241F4FD
S11342B08A8181FF05C00E948136811101C0D982A3
S11342C08A81811109CF0CC016FF76CF72CF883056
S11342D0D9F75FCF11FD8DCFC6CF13FD71CF71CF4D
S11342E0DF91CF911F910F91FF90EF90DF90CF90CE
S11342F0BF90AF9008959FB7F89480912B0582608A
S113430080932B059FBF0895BF92CF92DF92EF92C7
S1134310FF920F931F93CF93DF930E9425238091E5
S1134320A705813081F482E00E94E722F12CE12C80
S1134330C6EAD5E0D12C08E014E0CC24C3946894F8
S1134340BB24B1F878C00E948136882341F0809163
S11343502B05806280932B050E944D2002C0109291
S1134360A70588E094E00E948336E0CF8A3011F0FC
S11343708D3079F5EF2DF0E0E85FFB4F10820E945D
S11343804D208881811151C0F8018081811106C0BE
S11343908D2D0E944622FD2CED2C4DC0843241F41B
S11343A0C8010E94A5360E944622FD2CED2C43C074
S11343B08981813031F489E00E944622FD2CED2C64
S11343C03AC0C8010E9416060E944622FD2CED2C1C
S11343D032C0EE2039F0893271F5F1E0EF122BC0D2
S11343E0ED2C29C0813238F18F3229F1883201F164
S11343F08B3301F19EE49F1528F48BE00E94462242
S1134400FD2C19C09FE9980F9A3140F4EF2DF0E08C
S1134410E85FFB4F80528083F3940DC0EF2DF0E0F2
S1134420E85FFB4F8083F39406C0FD2CED2C03C0A2
S1134430EC2C01C0EB2C0E946F288F3F09F096CF23
S11344400E947B210E944D2088818823A1F3DF9163
S1134450CF911F910F91FF90EF90DF90CF90BF907D
S11344600895CF93DF930E947B21C6EAD5E00E9492
S11344704D208881811107C00E94FB1A892BB9F74E
S113448089818830A1F3DF91CF910895CF93C82F0C
S1134490811105C084EC99E00E94D21E61C08CEBAE
S11344A099E00E94D21E8C2F90E0FC013197E631F6
S11344B0F10508F04AC0E952FF4F0C945B3D84EAD1
S11344C099E00E94D21E48C082E999E00E94D21E5F
S11344D043C080E899E00E94D21E3EC086E799E07E
S11344E00E94D21E39C085E699E00E94D21E34C0D3
S11344F086E599E00E94D21E2FC085E399E00E94D0
S1134500D21E2AC08CE299E00E94D21E25C081E20C
S113451099E00E94D21E20C08EE099E00E94D21E33
S11345201BC080E099E00E94D21E16C08AEE98E07B
S11345300E94D21E11C086ED98E00E94D21E0CC0CB
S113454082EC98E00E94D21E07C080EB98E00E94A3
S1134550D21E8C2F0E942D1F8DEA98E00E94D21E3D
S1134560CF910895CF93C82F85EA98E00E94D21E78
S1134570C330A9F02CF4C13041F0C23059F01DC051
S1134580C43091F0C530A9F018C08AE998E00E94BF
S1134590D21E13C08FE898E00E94D21E0EC08CE792
S11345A098E00E94D21E09C081E798E00E94D21EC2
S11345B004C085E698E00E94D21E82E698E00E943C
S11345C0D21E84EF91E00E943219CF910895CF93C7
S11345D0C82F80E698E00E94D21E8C2F90E0FC0148
S11345E03197E830F10558F5E351FF4F0C945B3DEA
S11345F08EE498E00E94D21E22C08AE398E00E94D2
S1134600D21E1DC088E298E00E94D21E18C080E22B
S113461098E00E94D21E13C087E198E00E94D21E47
S11346200EC08CE098E00E94D21E09C084E098E09D
S11346300E94D21E04C081EF97E00E94D21E8DEE2C
S113464097E00E94D21ECF91089580ED97E00E94DA
S1134650D21E08958CE896E00E94D21E08951F93FE
S1134660CF93DF9388E896E00E94D21EC5E8D6E097
S113467088A90E942D1F8FE696E00E94D21E8BA966
S11346800E942D1F81E596E00E94D21E89A90E94F6
S11346902D1F88E396E00E94D21E89A90E94281F3C
S11346A081E396E00E94D21E8AA90E942D1F89E10F
S11346B096E00E94D21E8AA90E94281F82E196E0F9
S11346C00E94D21E8DAD82FB882780F90E942D1F87
S11346D081EF95E00E94D21E8DAD86FB882780F97C
S11346E00E942D1F81ED95E00E94D21E8DAD881F82
S11346F08827881F0E942D1F81EB95E00E94D21EFF
S11347008CA90E942D1F8BE995E00E94D21E8CA9D2
S11347100E94281F83E995E00E94D21E6DA97EA9FC
S11347208FA998AD0E94152083E795E00E94D21EC0
S113473069AD7AAD8BAD9CAD0E94152088E595E0FE
S11347400E94D21E8DAD81700E942D1F8BE395E0D7
S11347500E94D21E8DAD85FB882780F90E942D1FF3
S113476080E295E00E94D21E8DAD83FB882780F9FC
S11347700E942D1F85E095E00E94D21E8DAD82958A
S113478081700E942D1F89EE94E00E94D21E8EAD8E
S11347900E942D1F8FEC94E00E94D21E8EAD0E94C9
S11347A0281F87EC94E00E94D21E6091C406709189
S11347B0C5068091C6069091C7060E9415208AEA14
S11347C094E00E94D21E6091C8067091C90680913F
S11347D0CA069091CB060E9415208DE894E00E94B1
S11347E0D21E8091CC060E942D1F8EE694E00E947A
S11347F0D21E6091CE067091CF068091D006909122
S1134800D1060E94152085E594E00E94D21E14E68C
S1134810D0E0F2C083E594E00E94D21E8C2F810F79
S11348200E942D1F81E594E00E94D21ED13011F127
S113483030F0D230D1F1D33009F070C054C0EC2F35
S1134840F0E0EE0FFF1FEE0FFF1FEB57F94F6081F3
S11348507181828193810E9415208EE494E00E94EC
S1134860D21EC13009F46AC008F462C0C23009F42F
S11348706BC07FC0EC2FF0E0EE0FFF1FEE0FFF1FA9
S1134880EF56F94F60817181828193810E941520D6
S11348908EE494E00E94D21EC13009F44FC008F4A3
S11348A047C0C23009F450C072C0EC2FF0E0EE0FE4
S11348B0FF1FEE0FFF1FE356F94F20E030E041E603
S11348C055E460817181828193810E94CC390E9478
S11348D015208EE494E00E94D21EC13079F140F19B
S11348E0C23091F162C0EC2FF0E0EE0FFF1FEE0F2B
S11348F0FF1FE755F94F80819181A281B381BC01EB
S1134900CD0190580E9415208EE494E00E94D21E9E
S1134910C130A1F068F0C230B9F055C08EE494E023
S11349200E94D21EC13051F018F0C23069F019C093
S11349308CE494E00E94D21EC0E066C08AE494E055
S11349400E94D21EC1E060C088E494E00E94D21E9E
S1134950C2E0D130D9F068F0D23031F1D33091F1E6
S113496090C0D130A1F028F0D230F9F0D330B9F5AD
S11349702AC08EE394E00E94D21E87E094E00E9455
S1134980D21ECF5FC33008F455C031C0C2E08CE200
S113499094E00E94D21E87E094E00E94D21ECF5F72
S11349A0C33008F454C023C0C2E08BE194E00E94F9
S11349B0D21E87E094E00E94D21ECF5FC33008F479
S11349C053C015C0C2E08BE094E00E94D21E87E081
S11349D094E00E94D21ECF5FC330F8F008C087E095
S11349E094E00E94D21ECF5FC33008F413CF165F49
S11349F0DF5F1C3809F44AC0C0E00CCF87E094E0C4
S1134A000E94D21ECF5F06CFD13009F208F4B1CF95
S1134A10D23059F2D33091F7D6CF83E594E00E9497
S1134A20D21E812F8C0F0E942D1F81E594E00E94DD
S1134A30D21E59CF83E594E00E94D21E812F8C0FA1
S1134A400E942D1F81E594E00E94D21EF8CE83E5DA
S1134A5094E00E94D21E812F8C0F0E942D1F81E5AD
S1134A6094E00E94D21E06CF83E594E00E94D21EF9
S1134A70812F8C0F0E942D1F81E594E00E94D21E8D
S1134A8014CF87E094E00E94D21EB1CFDF91CF9182
S1134A901F910895CF9381E094E00E94D21EC0E05C
S1134AA06C2F86EB95E00E9495380E94F11FC2306E
S1134AB020F48FEF93E00E94D21ECF5FC33081F7C2
S1134AC08DEF93E00E94D21E8091C2050E942D1F9B
S1134AD089EF93E00E94D21ECF910895EF92FF9246
S1134AE00F931F93CF93DF93CDB7DEB72C970FB6F9
S1134AF0F894DEBF0FBECDBF00E0BE016F5F7F4FF5
S1134B00802F0E94222A811104C087E00E9446223D
S1134B106EC086EF93E00E94D21E063019F0073073
S1134B2031F00AC083EF93E00E94D21E09C080EFE7
S1134B3093E00E94D21E04C086E3800F0E942D1FC2
S1134B408EEE93E00E94D21ECE0101967C0110E00D
S1134B50F70161917191819191917F010E94F11FFF
S1134B60123028F48CEE93E00E94D21E04C088EE2A
S1134B7093E00E94D21E1F5F133051F70F5F08307D
S1134B8009F0BBCF82EE93E00E94D21E0F2EFDE50A
S1134B90EF2EF5E0FF2EF02D10E0F70161917191F9
S1134BA0819191917F010E94F11F123028F480EECF
S1134BB093E00E94D21E04C08CED93E00E94D21EAA
S1134BC01F5F133051F786ED93E00E94D21E60916F
S1134BD0690570916A0580916B0590916C050E943E
S1134BE0F11F82ED93E00E94D21E0E944A252C966A
S1134BF00FB6F894DEBF0FBECDBFDF91CF911F91EA
S1134C000F91FF90EF900895CF93DF9380ED93E0A1
S1134C100E94D21E80912E058230A9F028F48823A8
S1134C2041F0813059F01EC0833091F08830A9F0F2
S1134C3019C08DEC93E00E94D21E1DC08AEC93E053
S1134C400E94D21E18C087EC93E00E94D21E13C0AB
S1134C5084EC93E00E94D21E0EC080EC93E00E948C
S1134C60D21E09C08BEB93E00E94D21E80912E05C8
S1134C7082500E942D1F88EB93E00E94D21ECEE248
S1134C80D5E08E818A5C0E942D1F8C81813049F091
S1134C9018F0823059F00EC083EB93E00E94D21ECC
S1134CA009C08EEA93E00E94D21E04C089EA93E010
S1134CB00E94D21E80913005811105C084EA93E0E0
S1134CC00E94D21E04C08FE993E00E94D21E8091FC
S1134CD03105811105C08AE993E00E94D21E04C007
S1134CE085E993E00E94D21E80912F05813029F43A
S1134CF080E993E00E94D21E04C08BE893E00E94F6
S1134D00D21E80913505813049F018F0823059F077
S1134D100EC087E893E00E94D21E09C083E893E0A6
S1134D200E94D21E04C08FE793E00E94D21E80919D
S1134D303705813021F068F0823031F00EC08BE706
S1134D4093E00E94D21E09C087E793E00E94D21E1E
S1134D5004C083E793E00E94D21E80913605882325
S1134D6019F0823031F009C08FE693E00E94D21E20
S1134D7004C08BE693E00E94D21E88E693E00E9472
S1134D80D21ECEE2D5E08A890E942D1F85E693E0EB
S1134D900E94D21E6E857F85888999890E9403208E
S1134DA082E693E00E94D21E6A857B858C859D8570
S1134DB00E9403208EE593E00E94D21EDF91CF91E2
S1134DC008951F93CF93DF93182FEB018BE593E0A6
S1134DD00E94D21E812F0E942D1F89E593E00E941C
S1134DE0D21ECE010E94C31E86E593E00E94D21E0D
S1134DF0DF91CF911F910895CF93DF93EC0186E467
S1134E0093E00E94D21ECE010E94C31E82E493E06E
S1134E100E94D21EDF91CF910895AF92BF92CF929C
S1134E20DF92FF920F931F93CF93DF93CDB7DEB73B
S1134E3068970FB6F894DEBF0FBECDBF8CE0EAEAE8
S1134E40F5E0DE01119601900D928A95E1F7E0916B
S1134E50A7058E2F90E08134910538F5FC01EB50C5
S1134E60FF4F0C945B3D8CE393E00E94D21E1DC067
S1134E7087E393E00E94D21E18C081E393E00E946E
S1134E80D21E13C08BE293E00E94D21E0EC084E2B5
S1134E9093E00E94D21E09C08DE193E00E94D21ECD
S1134EA004C087E193E00E94D21E8091B90683700A
S1134EB039F0BE016F5F7F4FCE010D960E94B1386D
S1134EC08091B90680FF1AC080E193E00E94D21E4F
S1134ED06E012DE0C20ED11C10E0F60161917191BA
S1134EE0819191916F010E94F11F123020F48EE0A4
S1134EF093E00E94D21E1F5F133079F78091B906A8
S1134F0081FF4CC087E093E00E94D21E8E01035FB4
S1134F101F4F0F2EF1E5CF2EF5E0DF2EF02DF12CF3
S1134F20F60161917191819191916F012085318593
S1134F30428553850E94CD389B01AC01F801608104
S1134F407181828193810E94CC38F80160837183DE
S1134F5082839383F2E0FF1212C02091690530919D
S1134F606A0540916B0550916C050E94CC38F8019C
S1134F7060837183828393830E94F11F0FC00E9418
S1134F80F11FF1E0FF1520F085E093E00E94D21EAE
S1134F90F3940C5F1F4F23E0F212C2CF8091B90645
S1134FA082FF08C08FEF92E00E94D21E0E94AF1EC3
S1134FB00E942D1F8091B90683FF08C08AEF92E0FA
S1134FC00E94D21E0E9408280E942D1F8091B906BB
S1134FD084FF0AC084EF92E00E94D21E0E94251131
S1134FE043E062E00E94E41E80EF92E00E94D21E41
S1134FF068960FB6F894DEBF0FBECDBFDF91CF9198
S11350001F910F91FF90DF90CF90BF90AF900895C4
S113501090915A0480915B04891710F0891B0895BC
S11350208058891B0895E0ECF0E0808182608083E1
S11350301092C50080E18093C400E1ECF0E080812F
S113504080618083808188608083808180688083A0
S11350500895E091590421E02E0F203431F420E02A
S113506004C090912B0594FD0FC0909158049217A1
S1135070C1F3F0E0EB53FA4F808320935904E1EC41
S1135080F0E080818062808308951F920F920FB6B2
S11350900F9211248F939F93EF93FF938091580461
S11350A0E82FF0E0EB53FA4F90819093C6008F5FA6
S11350B0803409F480E08093580490915904891352
S11350C005C0E1ECF0E080818F7D8083FF91EF915A
S11350D09F918F910F900FBE0F901F9018959091F4
S11350E05A0480915B04981761F0E92FF0E0EB5FBC
S11350F0F94F80819F5F903809F490E090935A04AF
S113510008958FEF08951F920F920FB60F921124F6
S11351102F933F934F935F936F937F938F939F93BB
S1135120AF93BF93EF93FF938091C6008F3359F0F1
S113513028F4883161F18132C1F02CC08034F1F05F
S11351408E3751F027C09FB7F89480912B0581606A
S113515080932B059FBF2FC09FB7F89480912B0598
S1135160826080932B059FBF26C09FB7F8948091DF
S11351702B05886080932B059FBF1DC09FB7F894B3
S113518080912B05806280932B059FBF14C00E94E1
S11351903D1811C0E0915B0491E09E0F903809F432
S11351A090E020915A04921731F0F0E0EB5FF94F50
S11351B0808390935B04FF91EF91BF91AF919F9196
S11351C08F917F916F915F914F913F912F910F90AC
S11351D00FBE0F901F90189580915B0480935A0422
S11351E00895239A539A83EA8093B000E1EBF0E0A8
S11351F080818760808389E08093B30081E080931D
S1135200B400089521E5829FC001112440E550E0D7
S11352109D5F0E944505089540E550E0BC018EEA7B
S113522093E00E94450508952DE0829FC00111245A
S11352304CE050E09E5F0E944505089569E080E0DF
S113524090E00E9426054DE450E065E876E081E0B8
S113525090E00E94450508950F931F93CF93DF9329
S1135260CDB7DEB72C970FB6F894DEBF0FBECDBF17
S1135270082F80FF84C0E5E8F6E08AE080AB89E18E
S113528083AB11AA12AA83E084AB8AE097EDA3E270
S1135290BCE385AB96ABA7ABB0AF8FE692E1A3E0DE
S11352A0BBE381AF92AFA3AFB4AF16AE80E090E0A2
S11352B0A8ECB1E48093C4069093C506A093C606F7
S11352C0B093C70680E090E0AAEFB3E48093C806E9
S11352D09093C906A093CA06B093CB062AEF30E098
S11352E03093CD062093CC0640E050E060E87FE3A5
S11352F04093CE065093CF066093D0067093D106A8
S113530015AE40E050E06AE773E440835183628362
S11353107383448355836683778340875187628789
S1135320738784879587A687B787808B918BA28B99
S1135330B38B848B958BA68BB78B80E090EAACE023
S1135340B7E4808F918FA28FB38F848F958FA68FB0
S1135350B78F80A391A3A2A3B3A380E090E0A8E4B5
S1135360B3EC84A395A3A6A3B7A380A791A7A2A7F0
S1135370B3A784A795A7A6A7B7A70E941E2901FFD4
S113538011C0FE0131968CE0DF011D928A95E9F788
S113539010E0BE016F5F7F4F812F0E9414291F5FB1
S11353A01830B9F702FF0AC060E080E093E00E9481
S11353B0260560E081E593E00E94260503FF05C011
S11353C060E08EEA93E00E9426052C960FB6F894CE
S11353D0DEBF0FBECDBFDF91CF911F910F91089516
S11353E01F93CF93DF93182FEB0181E5189FB00132
S11353F011247D5F40E550E0CE010E948A05892B8F
S113540039F41882BE01812F0E94022980E001C074
S113541081E0DF91CF911F910895CF93DF93EC0149
S113542040E550E06EEA73E00E948A05892B31F46E
S11354301882CE010E940C2980E001C081E0DF9136
S1135440CF9108951F93CF93DF93182FEB018DE035
S1135450189FB00111247E5F4CE050E0CE010E9401
S11354608A05892B59F48CE0FE0111928A95E9F79B
S1135470BE01812F0E94142980E001C081E0DF91E8
S1135480CF911F91089580E090E00E941E0589301D
S113549069F44DE450E061E070E085E896E00E9434
S11354A08A0521E0892B19F420E001C020E0822F35
S11354B00895CF92DF92EF92FF92CF93DF93C82F9C
S11354C06A017B0120E030E0A901C701B6010E9416
S11354D0C23988230CF4DDC0C436A0F0ECE9EC0F2B
S11354E0E33020F0EA3008F0E2C0D5C0F0E0EE0F7F
S11354F0FF1FEE0FFF1FEB57F94FC082D182E282EC
S1135500F382C3C0C701B6010E94073D0E94453A19
S11355108C2F90E08C31910508F0BFC0FC01EA5C4F
S1135520FE4F0C945B3D633008F4B9C06093B5063C
S1135530ACC06093B806A9C06093B6060E94902ED2
S1135540A4C06093B7060E94902E9FC0662331F0DA
S1135550E5E8F6E085AD846085AF97C0E5E8F6E060
S113556085AD8B7F85AF91C0662331F0E5E8F6E029
S113557085AD806485AF89C0E5E8F6E085AD8F7BB5
S113558085AF83C0662331F0E5E8F6E085AD806839
S113559085AF7BC0E5E8F6E085AD8F7785AF75C054
S11355A06093B90672C0C092BA06D092BB06E0926C
S11355B0BC06F092BD0669C0C092BE06D092BF067A
S11355C0E092C006F092C10660C0662331F0E5E8BF
S11355D0F6E085AD816085AF58C0E5E8F6E085ADBD
S11355E08E7F85AF52C0662341F08091C20684FF4E
S11355F058C080628093C20648C0E5E8F6E085ADF5
S11356008F7D85AF42C0662331F0E5E8F6E085ADD5
S1135610886085AF05C0E5E8F6E085AD877F85AF96
S11356200E94111132C0662331F0E5E8F6E085AD41
S1135630806185AF2AC0E5E8F6E085AD8F7C85AF53
S113564024C06093C30621C0C092C406D092C5068C
S1135650E092C606F092C70618C0C092C806D0925F
S1135660C906E092CA06F092CB060FC0862F90E0DE
S11356709093CD068093CC0608C0C092CE06D092FB
S1135680CF06E092D006F092D1060E941E2980E057
S113569058C084E056C083E054C083E052C086E022
S11356A050C08AE04EC083E04CC083E04AC0E2E9C7
S11356B0EC0FE33070F0EA30B0F388E88C0F8330FD
S11356C0A0F08A3090F38EE78C0F833048F183E0AA
S11356D038C0F0E0EE0FFF1FEE0FFF1FEF56F94F3B
S11356E0C082D182E282F382D0CFC82FD0E0CC0F27
S11356F0DD1FCC0FDD1FC356D94F20E030E040E75B
S113570052E4C701B6010E94243C20E030E040E7A7
S113571052E40E94243C688379838A839B83B5CFB7
S1135720E82FF0E0EE0FFF1FEE0FFF1FE755F94FD4
S1135730F7FAF094F7F8F094C082D182E282F3820F
S1135740A4CFDF91CF91FF90EF90DF90CF90089599
S11357500E94432A811108C087E00E9446228FEFED
S11357600E942C290E942F230895882321F0813040
S113577021F080E1089584E0089588E00895882365
S113578021F0813021F080E8089580E2089580E4DA
S11357900895882321F0813021F080E1089582E08A
S11357A0089584E00895E0EBF0E080818F778083B2
S11357B00895CF92DF92EF92FF926A017B018111EB
S11357C003C00E94D32B4DC0813011F42D9801C029
S11357D02D9A83E88093B000E1EBF0E08081887F2C
S11357E08260808320E030E0A901C701B6010E94F5
S11357F0C23918161CF00E94D32B33C020E030E0CD
S1135800A901C701B6010E94C23988239CF020E097
S113581030E04AE754E4C701B6010E94E43B18169D
S113582064F40F2EC12CD12CFAE7EF2EF4E4FF2EF2
S1135830F02D03C0C12CD12C76012CE53FE842E8C1
S11358405EE3C701B6010E94243C20E030E040E062
S11358505FE30E94CD380E94B13A0E94453A6093BA
S1135860B300FF90EF90DF90CF900895CF92DF9236
S1135870EF92FF92CF939091A705923051F06A0175
S11358807B01C82F0E943122B701A6018C2F0E94F0
S1135890D92BCF91FF90EF90DF90CF900895809116
S11358A0C20682FF02C0289A01C028988091A705E9
S11358B08C7099F0EFE8F4E080918A0487878091F6
S11358C08B0486878091B506880F845081958587DF
S11358D0EFE6F0E08081826080830895EFE6F0E0F7
S11358E080818D7F8083E1E8F0E08081887F816022
S11358F08083109289048091B8068F3F21F490919F
S11359002D05992379F09091A705943059F090E0F2
S11359100E9432198091C20682FD02C0289A08951D
S1135920289808958091C20682FFFACFF7CF1F927C
S11359300F920FB60F9211240F931F932F933F933F
S11359404F935F936F937F938F939F93AF93BF9383
S1135950CF93DF93EF93FF93809189048111B5C1B5
S11359608BB1EFE8F4E09785907E8F71892B8BB92A
S11359708BB1837E9685892B8BB9858586BD82E024
S113598085BD81E080938904789481A192A1892BBB
S113599009F092C080918E0490918D04981709F4B7
S11359A080C080918E0490E0EF01FC01EE0FFF1F98
S11359B0DF01A80FB91FAA0FBB1FAE54BB4FBAA378
S11359C0A9A3FD0183819481909389008093880029
S11359D08D919C9111979D8F8C8F1296EC911297BB
S11359E08E8D8E17E9F0EE8F01E1E09FF001112416
S11359F0EA52FB4FF8A3EF8F45855685678570897A
S1135A007695679557954795488759876A877B8721
S1135A104C835D836E837F83488359836A837B834E
S1135A20EFE8F4E0C78DD0A1988180918A0489279A
S1135A30878749815A816B817C8115960C901597D3
S1135A4004C076956795579547950A94D2F7408B8D
S1135A50518B628B738B4D815E816F817885159636
S1135A600C90159704C076956795579547950A94B9
S1135A70D2F7448B558B668B778B49855A856B851A
S1135A807C858A019B0115960C9004C03695279558
S1135A90179507950A94D2F7008F118F228F338FB1
S1135AA00BC00E946E2C9FB7F89480912B058460E4
S1135AB080932B059FBF09C10E943420EFE8F4E0D6
S1135AC01686408151816281738180899189A2897E
S1135AD0B389840F951FA61FB71F80839183A28368
S1135AE0B383078CF0A1E02D4585568567857089C1
S1135AF0481759076A077B0770F5CFE8D4E024E01C
S1135B002E874585568567857089841B950BA60B62
S1135B10B70B88839983AA83BB83808185FF0EC0DA
S1135B20C6EAD5E08C819D81AE81BF810197A10930
S1135B30B1098C839D83AE83BF830DC0C6EAD5E0D3
S1135B408C819D81AE81BF810196A11DB11D8C8385
S1135B509D83AE83BF83CFE8D4E04C815D816E81A9
S1135B607F818C899D89AE89BF89840F951FA61F6B
S1135B70B71F8C839D83AE83BF8345855685678518
S1135B807089481759076A077B0768F52E852860CE
S1135B902E874585568567857089841B950BA60BD2
S1135BA0B70B8C839D83AE83BF83808186FF0EC039
S1135BB0C6EAD5E088859985AA85BB850197A109A0
S1135BC0B10988879987AA87BB870DC0C6EAD5E043
S1135BD088859985AA85BB850196A11DB11D8887F5
S1135BE09987AA87BB87CFE8D4E0488559856A8519
S1135BF07B85888D998DAA8DBB8D840F951FA61FDB
S1135C00B71F88879987AA87BB8745855685678587
S1135C107089481759076A077B0768F52E85206144
S1135C202E874585568567857089841B950BA60B41
S1135C30B70B88879987AA87BB878081882374F4E8
S1135C40E6EAF5E084859585A685B7850197A109DF
S1135C50B10984879587A687B7870DC0E6EAF5E082
S1135C6084859585A685B7850196A11DB11D848778
S1135C709587A687B7878091A705843039F4EFE824
S1135C80F4E096858091C30589238687EFE8F4E0E4
S1135C90848D958D0197958F848F892B69F410924B
S1135CA0B1041092B00480918E048F5F80938E04AF
S1135CB0863011F410928E04EFE8F4E0968580911A
S1135CC08B048927868710928904FF91EF91DF91D5
S1135CD0CF91BF91AF919F918F917F916F915F9180
S1135CE04F913F912F911F910F910F900FBE0F90E5
